{
  "contractName": "CarbonCreditSteward_v0",
  "abi": [
    {
      "constant": true,
      "inputs": [
        {
          "name": "",
          "type": "uint256"
        },
        {
          "name": "",
          "type": "address"
        }
      ],
      "name": "tokensGenerated",
      "outputs": [
        {
          "name": "",
          "type": "uint256"
        }
      ],
      "payable": false,
      "stateMutability": "view",
      "type": "function"
    },
    {
      "constant": true,
      "inputs": [
        {
          "name": "",
          "type": "uint256"
        }
      ],
      "name": "currentPatron",
      "outputs": [
        {
          "name": "",
          "type": "address"
        }
      ],
      "payable": false,
      "stateMutability": "view",
      "type": "function"
    },
    {
      "constant": true,
      "inputs": [],
      "name": "assetToken",
      "outputs": [
        {
          "name": "",
          "type": "address"
        }
      ],
      "payable": false,
      "stateMutability": "view",
      "type": "function"
    },
    {
      "constant": true,
      "inputs": [
        {
          "name": "",
          "type": "uint256"
        }
      ],
      "name": "benefactors",
      "outputs": [
        {
          "name": "",
          "type": "address"
        }
      ],
      "payable": false,
      "stateMutability": "view",
      "type": "function"
    },
    {
      "constant": true,
      "inputs": [
        {
          "name": "",
          "type": "uint256"
        }
      ],
      "name": "currentCollected",
      "outputs": [
        {
          "name": "",
          "type": "uint256"
        }
      ],
      "payable": false,
      "stateMutability": "view",
      "type": "function"
    },
    {
      "constant": true,
      "inputs": [
        {
          "name": "",
          "type": "uint256"
        },
        {
          "name": "",
          "type": "address"
        }
      ],
      "name": "timeHeld",
      "outputs": [
        {
          "name": "",
          "type": "uint256"
        }
      ],
      "payable": false,
      "stateMutability": "view",
      "type": "function"
    },
    {
      "constant": true,
      "inputs": [],
      "name": "cscRegistry",
      "outputs": [
        {
          "name": "",
          "type": "address"
        }
      ],
      "payable": false,
      "stateMutability": "view",
      "type": "function"
    },
    {
      "constant": true,
      "inputs": [
        {
          "name": "",
          "type": "uint256"
        }
      ],
      "name": "price",
      "outputs": [
        {
          "name": "",
          "type": "uint256"
        }
      ],
      "payable": false,
      "stateMutability": "view",
      "type": "function"
    },
    {
      "constant": true,
      "inputs": [
        {
          "name": "",
          "type": "uint256"
        },
        {
          "name": "",
          "type": "address"
        }
      ],
      "name": "patrons",
      "outputs": [
        {
          "name": "",
          "type": "bool"
        }
      ],
      "payable": false,
      "stateMutability": "view",
      "type": "function"
    },
    {
      "constant": true,
      "inputs": [
        {
          "name": "",
          "type": "uint256"
        }
      ],
      "name": "state",
      "outputs": [
        {
          "name": "",
          "type": "uint8"
        }
      ],
      "payable": false,
      "stateMutability": "view",
      "type": "function"
    },
    {
      "constant": true,
      "inputs": [
        {
          "name": "",
          "type": "uint256"
        }
      ],
      "name": "timeAcquired",
      "outputs": [
        {
          "name": "",
          "type": "uint256"
        }
      ],
      "payable": false,
      "stateMutability": "view",
      "type": "function"
    },
    {
      "constant": true,
      "inputs": [],
      "name": "carbonCredit",
      "outputs": [
        {
          "name": "",
          "type": "address"
        }
      ],
      "payable": false,
      "stateMutability": "view",
      "type": "function"
    },
    {
      "constant": true,
      "inputs": [
        {
          "name": "",
          "type": "uint256"
        }
      ],
      "name": "tokenGenerationRate",
      "outputs": [
        {
          "name": "",
          "type": "uint256"
        }
      ],
      "payable": false,
      "stateMutability": "view",
      "type": "function"
    },
    {
      "constant": true,
      "inputs": [
        {
          "name": "",
          "type": "uint256"
        }
      ],
      "name": "timeLastCollected",
      "outputs": [
        {
          "name": "",
          "type": "uint256"
        }
      ],
      "payable": false,
      "stateMutability": "view",
      "type": "function"
    },
    {
      "constant": true,
      "inputs": [
        {
          "name": "",
          "type": "uint256"
        }
      ],
      "name": "cryptoSpacialCoordinates",
      "outputs": [
        {
          "name": "",
          "type": "bytes12"
        }
      ],
      "payable": false,
      "stateMutability": "view",
      "type": "function"
    },
    {
      "constant": true,
      "inputs": [
        {
          "name": "",
          "type": "address"
        }
      ],
      "name": "timeLastCollectedPatron",
      "outputs": [
        {
          "name": "",
          "type": "uint256"
        }
      ],
      "payable": false,
      "stateMutability": "view",
      "type": "function"
    },
    {
      "constant": true,
      "inputs": [],
      "name": "patronageDenominator",
      "outputs": [
        {
          "name": "",
          "type": "uint256"
        }
      ],
      "payable": false,
      "stateMutability": "view",
      "type": "function"
    },
    {
      "constant": true,
      "inputs": [
        {
          "name": "",
          "type": "address"
        }
      ],
      "name": "benefactorFunds",
      "outputs": [
        {
          "name": "",
          "type": "uint256"
        }
      ],
      "payable": false,
      "stateMutability": "view",
      "type": "function"
    },
    {
      "constant": true,
      "inputs": [
        {
          "name": "",
          "type": "uint256"
        }
      ],
      "name": "totalCollected",
      "outputs": [
        {
          "name": "",
          "type": "uint256"
        }
      ],
      "payable": false,
      "stateMutability": "view",
      "type": "function"
    },
    {
      "constant": true,
      "inputs": [
        {
          "name": "",
          "type": "uint256"
        }
      ],
      "name": "patronageNumerator",
      "outputs": [
        {
          "name": "",
          "type": "uint256"
        }
      ],
      "payable": false,
      "stateMutability": "view",
      "type": "function"
    },
    {
      "constant": true,
      "inputs": [
        {
          "name": "",
          "type": "address"
        }
      ],
      "name": "deposit",
      "outputs": [
        {
          "name": "",
          "type": "uint256"
        }
      ],
      "payable": false,
      "stateMutability": "view",
      "type": "function"
    },
    {
      "constant": true,
      "inputs": [],
      "name": "admin",
      "outputs": [
        {
          "name": "",
          "type": "address"
        }
      ],
      "payable": false,
      "stateMutability": "view",
      "type": "function"
    },
    {
      "constant": true,
      "inputs": [
        {
          "name": "",
          "type": "address"
        }
      ],
      "name": "totalPatronOwnedTokenCost",
      "outputs": [
        {
          "name": "",
          "type": "uint256"
        }
      ],
      "payable": false,
      "stateMutability": "view",
      "type": "function"
    },
    {
      "anonymous": false,
      "inputs": [
        {
          "indexed": true,
          "name": "owner",
          "type": "address"
        },
        {
          "indexed": true,
          "name": "price",
          "type": "uint256"
        }
      ],
      "name": "LogBuy",
      "type": "event"
    },
    {
      "anonymous": false,
      "inputs": [
        {
          "indexed": true,
          "name": "newPrice",
          "type": "uint256"
        }
      ],
      "name": "LogPriceChange",
      "type": "event"
    },
    {
      "anonymous": false,
      "inputs": [
        {
          "indexed": true,
          "name": "prevOwner",
          "type": "address"
        }
      ],
      "name": "LogForeclosure",
      "type": "event"
    },
    {
      "anonymous": false,
      "inputs": [
        {
          "indexed": true,
          "name": "collected",
          "type": "uint256"
        }
      ],
      "name": "LogCollection",
      "type": "event"
    },
    {
      "anonymous": false,
      "inputs": [
        {
          "indexed": true,
          "name": "tokenPatron",
          "type": "address"
        },
        {
          "indexed": true,
          "name": "remainingDeposit",
          "type": "uint256"
        }
      ],
      "name": "LogRemainingDepositUpdate",
      "type": "event"
    },
    {
      "anonymous": false,
      "inputs": [
        {
          "indexed": true,
          "name": "tokenId",
          "type": "uint256"
        },
        {
          "indexed": false,
          "name": "patronageNumerator",
          "type": "uint256"
        }
      ],
      "name": "AddToken",
      "type": "event"
    },
    {
      "constant": false,
      "inputs": [
        {
          "name": "_assetToken",
          "type": "address"
        },
        {
          "name": "_admin",
          "type": "address"
        },
        {
          "name": "_patronageDenominator",
          "type": "uint256"
        },
        {
          "name": "_carbonCredit",
          "type": "address"
        },
        {
          "name": "_cscRegistry",
          "type": "address"
        }
      ],
      "name": "initialize",
      "outputs": [],
      "payable": false,
      "stateMutability": "nonpayable",
      "type": "function"
    },
    {
      "constant": false,
      "inputs": [
        {
          "name": "tokens",
          "type": "uint256[]"
        },
        {
          "name": "_benefactors",
          "type": "address[]"
        },
        {
          "name": "_patronageNumerator",
          "type": "uint256[]"
        },
        {
          "name": "_tokenGenerationRate",
          "type": "uint256[]"
        },
        {
          "name": "_cryptoSpacialCoordinates",
          "type": "bytes12[]"
        }
      ],
      "name": "listNewTokens",
      "outputs": [],
      "payable": false,
      "stateMutability": "nonpayable",
      "type": "function"
    },
    {
      "constant": false,
      "inputs": [
        {
          "name": "tokenId",
          "type": "uint256"
        }
      ],
      "name": "getVerifications",
      "outputs": [
        {
          "name": "",
          "type": "bool"
        },
        {
          "name": "",
          "type": "bool"
        },
        {
          "name": "",
          "type": "bool"
        }
      ],
      "payable": false,
      "stateMutability": "nonpayable",
      "type": "function"
    },
    {
      "constant": false,
      "inputs": [
        {
          "name": "tokenId",
          "type": "uint256"
        },
        {
          "name": "_newReceivingBenefactor",
          "type": "address"
        }
      ],
      "name": "changeReceivingBenefactor",
      "outputs": [],
      "payable": false,
      "stateMutability": "nonpayable",
      "type": "function"
    },
    {
      "constant": false,
      "inputs": [
        {
          "name": "_admin",
          "type": "address"
        }
      ],
      "name": "changeAdmin",
      "outputs": [],
      "payable": false,
      "stateMutability": "nonpayable",
      "type": "function"
    },
    {
      "constant": true,
      "inputs": [
        {
          "name": "tokenId",
          "type": "uint256"
        }
      ],
      "name": "patronageOwed",
      "outputs": [
        {
          "name": "patronageDue",
          "type": "uint256"
        }
      ],
      "payable": false,
      "stateMutability": "view",
      "type": "function"
    },
    {
      "constant": true,
      "inputs": [
        {
          "name": "tokenId",
          "type": "uint256"
        }
      ],
      "name": "patronageOwedWithTimestamp",
      "outputs": [
        {
          "name": "patronageDue",
          "type": "uint256"
        },
        {
          "name": "timestamp",
          "type": "uint256"
        }
      ],
      "payable": false,
      "stateMutability": "view",
      "type": "function"
    },
    {
      "constant": true,
      "inputs": [
        {
          "name": "tokenPatron",
          "type": "address"
        }
      ],
      "name": "patronageOwedPatron",
      "outputs": [
        {
          "name": "patronageDue",
          "type": "uint256"
        }
      ],
      "payable": false,
      "stateMutability": "view",
      "type": "function"
    },
    {
      "constant": true,
      "inputs": [
        {
          "name": "tokenPatron",
          "type": "address"
        },
        {
          "name": "tokenId",
          "type": "uint256"
        }
      ],
      "name": "creditsDue",
      "outputs": [
        {
          "name": "creditsDue",
          "type": "uint256"
        }
      ],
      "payable": false,
      "stateMutability": "view",
      "type": "function"
    },
    {
      "constant": true,
      "inputs": [
        {
          "name": "tokenPatron",
          "type": "address"
        }
      ],
      "name": "patronageOwedPatronWithTimestamp",
      "outputs": [
        {
          "name": "patronageDue",
          "type": "uint256"
        },
        {
          "name": "timestamp",
          "type": "uint256"
        }
      ],
      "payable": false,
      "stateMutability": "view",
      "type": "function"
    },
    {
      "constant": true,
      "inputs": [
        {
          "name": "tokenPatron",
          "type": "address"
        }
      ],
      "name": "foreclosedPatron",
      "outputs": [
        {
          "name": "",
          "type": "bool"
        }
      ],
      "payable": false,
      "stateMutability": "view",
      "type": "function"
    },
    {
      "constant": true,
      "inputs": [
        {
          "name": "tokenId",
          "type": "uint256"
        }
      ],
      "name": "foreclosed",
      "outputs": [
        {
          "name": "",
          "type": "bool"
        }
      ],
      "payable": false,
      "stateMutability": "view",
      "type": "function"
    },
    {
      "constant": true,
      "inputs": [
        {
          "name": "tokenPatron",
          "type": "address"
        }
      ],
      "name": "depositAbleToWithdraw",
      "outputs": [
        {
          "name": "",
          "type": "uint256"
        }
      ],
      "payable": false,
      "stateMutability": "view",
      "type": "function"
    },
    {
      "constant": true,
      "inputs": [
        {
          "name": "tokenPatron",
          "type": "address"
        }
      ],
      "name": "foreclosureTimePatron",
      "outputs": [
        {
          "name": "",
          "type": "uint256"
        }
      ],
      "payable": false,
      "stateMutability": "view",
      "type": "function"
    },
    {
      "constant": true,
      "inputs": [
        {
          "name": "tokenId",
          "type": "uint256"
        }
      ],
      "name": "foreclosureTime",
      "outputs": [
        {
          "name": "",
          "type": "uint256"
        }
      ],
      "payable": false,
      "stateMutability": "view",
      "type": "function"
    },
    {
      "constant": false,
      "inputs": [
        {
          "name": "tokenId",
          "type": "uint256"
        }
      ],
      "name": "_collectPatronage",
      "outputs": [],
      "payable": false,
      "stateMutability": "nonpayable",
      "type": "function"
    },
    {
      "constant": false,
      "inputs": [
        {
          "name": "tokenPatron",
          "type": "address"
        }
      ],
      "name": "_collectPatronagePatron",
      "outputs": [],
      "payable": false,
      "stateMutability": "nonpayable",
      "type": "function"
    },
    {
      "constant": false,
      "inputs": [],
      "name": "depositWei",
      "outputs": [],
      "payable": true,
      "stateMutability": "payable",
      "type": "function"
    },
    {
      "constant": false,
      "inputs": [
        {
          "name": "patron",
          "type": "address"
        }
      ],
      "name": "depositWeiPatron",
      "outputs": [],
      "payable": true,
      "stateMutability": "payable",
      "type": "function"
    },
    {
      "constant": false,
      "inputs": [
        {
          "name": "tokenId",
          "type": "uint256"
        },
        {
          "name": "_newPrice",
          "type": "uint256"
        }
      ],
      "name": "buy",
      "outputs": [],
      "payable": true,
      "stateMutability": "payable",
      "type": "function"
    },
    {
      "constant": false,
      "inputs": [
        {
          "name": "tokenId",
          "type": "uint256"
        },
        {
          "name": "_newPrice",
          "type": "uint256"
        }
      ],
      "name": "changePrice",
      "outputs": [],
      "payable": false,
      "stateMutability": "nonpayable",
      "type": "function"
    },
    {
      "constant": false,
      "inputs": [
        {
          "name": "_wei",
          "type": "uint256"
        }
      ],
      "name": "withdrawDeposit",
      "outputs": [
        {
          "name": "",
          "type": "uint256"
        }
      ],
      "payable": false,
      "stateMutability": "nonpayable",
      "type": "function"
    },
    {
      "constant": false,
      "inputs": [],
      "name": "withdrawBenefactorFunds",
      "outputs": [],
      "payable": false,
      "stateMutability": "nonpayable",
      "type": "function"
    },
    {
      "constant": false,
      "inputs": [
        {
          "name": "benefactor",
          "type": "address"
        }
      ],
      "name": "withdrawBenefactorFundsTo",
      "outputs": [],
      "payable": false,
      "stateMutability": "nonpayable",
      "type": "function"
    },
    {
      "constant": false,
      "inputs": [],
      "name": "exit",
      "outputs": [],
      "payable": false,
      "stateMutability": "nonpayable",
      "type": "function"
    }
  ],
  "bytecode": "0x608060405234801561001057600080fd5b506149dd806100206000396000f3fe6080604052600436106102935760003560e01c806366eec1191161015a578063cad67971116100c1578063e4fb7aa91161007a578063e4fb7aa9146113e5578063e9fad8ee1461144e578063f340fa0114611465578063f851a440146114ca578063f9345df514611521578063fb84e7ec1461158657610293565b8063cad67971146111fa578063d530bff91461123e578063d6febde8146112aa578063d9d85b07146112e2578063e1c214c614611347578063e2e7ec211461139657610293565b8063b3de019c11610113578063b3de019c1461100c578063b9af132c14611051578063b9c3c38d1461107c578063c08f66cb146110e1578063c255dd0014611146578063c3310052146111ab57610293565b806366eec11914610de55780638cb3c25f14610e345780638cb6889914610e8a5780638f28397014610ed9578063918f7def14610f2a578063b08d024b14610fa757610293565b806326a49e37116101fe578063385320aa116101b7578063385320aa14610c0157806339b645bb14610c185780633adbd0fb14610c875780633e4f49e614610ce25780635b2ace6414610d3f578063637bf79514610d8e57610293565b806326a49e37146109955780632a9cdd7a146109e45780632b09e01314610a335780632c3db6ea14610aa657806333289a4614610af757806333e1a22314610b4657610293565b806315488b881161025057806315488b88146107d25780631b252781146107dc5780631e8b76ad1461082b578063237b5e4f1461087e57806323a8cd40146108ed5780632488a69e1461094457610293565b806302b9ff1b1461029857806303f3db6b146103075780630e8f274f1461061c5780630f584d46146106975780631083f76114610700578063128ee16114610757575b600080fd5b3480156102a457600080fd5b506102f1600480360360408110156102bb57600080fd5b8101908080359060200190929190803573ffffffffffffffffffffffffffffffffffffffff1690602001909291905050506115c1565b6040518082815260200191505060405180910390f35b34801561031357600080fd5b5061061a600480360360a081101561032a57600080fd5b810190808035906020019064010000000081111561034757600080fd5b82018360208201111561035957600080fd5b8035906020019184602083028401116401000000008311171561037b57600080fd5b919080806020026020016040519081016040528093929190818152602001838360200280828437600081840152601f19601f820116905080830192505050505050509192919290803590602001906401000000008111156103db57600080fd5b8201836020820111156103ed57600080fd5b8035906020019184602083028401116401000000008311171561040f57600080fd5b919080806020026020016040519081016040528093929190818152602001838360200280828437600081840152601f19601f8201169050808301925050505050505091929192908035906020019064010000000081111561046f57600080fd5b82018360208201111561048157600080fd5b803590602001918460208302840111640100000000831117156104a357600080fd5b919080806020026020016040519081016040528093929190818152602001838360200280828437600081840152601f19601f8201169050808301925050505050505091929192908035906020019064010000000081111561050357600080fd5b82018360208201111561051557600080fd5b8035906020019184602083028401116401000000008311171561053757600080fd5b919080806020026020016040519081016040528093929190818152602001838360200280828437600081840152601f19601f8201169050808301925050505050505091929192908035906020019064010000000081111561059757600080fd5b8201836020820111156105a957600080fd5b803590602001918460208302840111640100000000831117156105cb57600080fd5b919080806020026020016040519081016040528093929190818152602001838360200280828437600081840152601f19601f8201169050808301925050505050505091929192905050506115e6565b005b34801561062857600080fd5b506106556004803603602081101561063f57600080fd5b810190808035906020019092919050505061191f565b604051808273ffffffffffffffffffffffffffffffffffffffff1673ffffffffffffffffffffffffffffffffffffffff16815260200191505060405180910390f35b3480156106a357600080fd5b506106d0600480360360208110156106ba57600080fd5b8101908080359060200190929190505050611952565b60405180841515151581526020018315151515815260200182151515158152602001935050505060405180910390f35b34801561070c57600080fd5b50610715611bf9565b604051808273ffffffffffffffffffffffffffffffffffffffff1673ffffffffffffffffffffffffffffffffffffffff16815260200191505060405180910390f35b34801561076357600080fd5b506107906004803603602081101561077a57600080fd5b8101908080359060200190929190505050611c1f565b604051808273ffffffffffffffffffffffffffffffffffffffff1673ffffffffffffffffffffffffffffffffffffffff16815260200191505060405180910390f35b6107da611c52565b005b3480156107e857600080fd5b50610815600480360360208110156107ff57600080fd5b8101908080359060200190929190505050611c5d565b6040518082815260200191505060405180910390f35b34801561083757600080fd5b506108646004803603602081101561084e57600080fd5b8101908080359060200190929190505050611c75565b604051808215151515815260200191505060405180910390f35b34801561088a57600080fd5b506108d7600480360360408110156108a157600080fd5b8101908080359060200190929190803573ffffffffffffffffffffffffffffffffffffffff169060200190929190505050611cbf565b6040518082815260200191505060405180910390f35b3480156108f957600080fd5b50610902611ce4565b604051808273ffffffffffffffffffffffffffffffffffffffff1673ffffffffffffffffffffffffffffffffffffffff16815260200191505060405180910390f35b34801561095057600080fd5b506109936004803603602081101561096757600080fd5b81019080803573ffffffffffffffffffffffffffffffffffffffff169060200190929190505050611d0a565b005b3480156109a157600080fd5b506109ce600480360360208110156109b857600080fd5b810190808035906020019092919050505061202c565b6040518082815260200191505060405180910390f35b3480156109f057600080fd5b50610a1d60048036036020811015610a0757600080fd5b8101908080359060200190929190505050612044565b6040518082815260200191505060405180910390f35b348015610a3f57600080fd5b50610a8c60048036036040811015610a5657600080fd5b8101908080359060200190929190803573ffffffffffffffffffffffffffffffffffffffff16906020019092919050505061210c565b604051808215151515815260200191505060405180910390f35b348015610ab257600080fd5b50610af560048036036020811015610ac957600080fd5b81019080803573ffffffffffffffffffffffffffffffffffffffff16906020019092919050505061213b565b005b348015610b0357600080fd5b50610b3060048036036020811015610b1a57600080fd5b81019080803590602001909291905050506122be565b6040518082815260200191505060405180910390f35b348015610b5257600080fd5b50610bff600480360360a0811015610b6957600080fd5b81019080803573ffffffffffffffffffffffffffffffffffffffff169060200190929190803573ffffffffffffffffffffffffffffffffffffffff16906020019092919080359060200190929190803573ffffffffffffffffffffffffffffffffffffffff169060200190929190803573ffffffffffffffffffffffffffffffffffffffff1690602001909291905050506122d9565b005b348015610c0d57600080fd5b50610c166124e8565b005b348015610c2457600080fd5b50610c7160048036036040811015610c3b57600080fd5b81019080803573ffffffffffffffffffffffffffffffffffffffff169060200190929190803590602001909291905050506124f3565b6040518082815260200191505060405180910390f35b348015610c9357600080fd5b50610ce060048036036040811015610caa57600080fd5b8101908080359060200190929190803573ffffffffffffffffffffffffffffffffffffffff169060200190929190505050612573565b005b348015610cee57600080fd5b50610d1b60048036036020811015610d0557600080fd5b81019080803590602001909291905050506127f8565b60405180826001811115610d2b57fe5b60ff16815260200191505060405180910390f35b348015610d4b57600080fd5b50610d7860048036036020811015610d6257600080fd5b8101908080359060200190929190505050612818565b6040518082815260200191505060405180910390f35b348015610d9a57600080fd5b50610da3612830565b604051808273ffffffffffffffffffffffffffffffffffffffff1673ffffffffffffffffffffffffffffffffffffffff16815260200191505060405180910390f35b348015610df157600080fd5b50610e1e60048036036020811015610e0857600080fd5b8101908080359060200190929190505050612856565b6040518082815260200191505060405180910390f35b348015610e4057600080fd5b50610e6d60048036036020811015610e5757600080fd5b810190808035906020019092919050505061286e565b604051808381526020018281526020019250505060405180910390f35b348015610e9657600080fd5b50610ec360048036036020811015610ead57600080fd5b8101908080359060200190929190505050612884565b6040518082815260200191505060405180910390f35b348015610ee557600080fd5b50610f2860048036036020811015610efc57600080fd5b81019080803573ffffffffffffffffffffffffffffffffffffffff16906020019092919050505061289c565b005b348015610f3657600080fd5b50610f6360048036036020811015610f4d57600080fd5b81019080803590602001909291905050506129a3565b604051808273ffffffffffffffffffffffffffffffffffffffff191673ffffffffffffffffffffffffffffffffffffffff1916815260200191505060405180910390f35b348015610fb357600080fd5b50610ff660048036036020811015610fca57600080fd5b81019080803573ffffffffffffffffffffffffffffffffffffffff1690602001909291905050506129c3565b6040518082815260200191505060405180910390f35b34801561101857600080fd5b5061104f6004803603604081101561102f57600080fd5b8101908080359060200190929190803590602001909291905050506129db565b005b34801561105d57600080fd5b50611066612d40565b6040518082815260200191505060405180910390f35b34801561108857600080fd5b506110cb6004803603602081101561109f57600080fd5b81019080803573ffffffffffffffffffffffffffffffffffffffff169060200190929190505050612d46565b6040518082815260200191505060405180910390f35b3480156110ed57600080fd5b506111306004803603602081101561110457600080fd5b81019080803573ffffffffffffffffffffffffffffffffffffffff169060200190929190505050612e3c565b6040518082815260200191505060405180910390f35b34801561115257600080fd5b506111956004803603602081101561116957600080fd5b81019080803573ffffffffffffffffffffffffffffffffffffffff169060200190929190505050612f63565b6040518082815260200191505060405180910390f35b3480156111b757600080fd5b506111e4600480360360208110156111ce57600080fd5b8101908080359060200190929190505050612f7b565b6040518082815260200191505060405180910390f35b61123c6004803603602081101561121057600080fd5b81019080803573ffffffffffffffffffffffffffffffffffffffff169060200190929190505050612f93565b005b34801561124a57600080fd5b5061128d6004803603602081101561126157600080fd5b81019080803573ffffffffffffffffffffffffffffffffffffffff1690602001909291905050506130e0565b604051808381526020018281526020019250505060405180910390f35b6112e0600480360360408110156112c057600080fd5b8101908080359060200190929190803590602001909291905050506130f6565b005b3480156112ee57600080fd5b506113316004803603602081101561130557600080fd5b81019080803573ffffffffffffffffffffffffffffffffffffffff169060200190929190505050613655565b6040518082815260200191505060405180910390f35b34801561135357600080fd5b506113806004803603602081101561136a57600080fd5b810190808035906020019092919050505061370e565b6040518082815260200191505060405180910390f35b3480156113a257600080fd5b506113cf600480360360208110156113b957600080fd5b8101908080359060200190929190505050613758565b6040518082815260200191505060405180910390f35b3480156113f157600080fd5b506114346004803603602081101561140857600080fd5b81019080803573ffffffffffffffffffffffffffffffffffffffff169060200190929190505050613770565b604051808215151515815260200191505060405180910390f35b34801561145a57600080fd5b506114636137d3565b005b34801561147157600080fd5b506114b46004803603602081101561148857600080fd5b81019080803573ffffffffffffffffffffffffffffffffffffffff169060200190929190505050613828565b6040518082815260200191505060405180910390f35b3480156114d657600080fd5b506114df613840565b604051808273ffffffffffffffffffffffffffffffffffffffff1673ffffffffffffffffffffffffffffffffffffffff16815260200191505060405180910390f35b34801561152d57600080fd5b506115706004803603602081101561154457600080fd5b81019080803573ffffffffffffffffffffffffffffffffffffffff169060200190929190505050613866565b6040518082815260200191505060405180910390f35b34801561159257600080fd5b506115bf600480360360208110156115a957600080fd5b810190808035906020019092919050505061387e565b005b6045602052816000526040600020602052806000526040600020600091509150505481565b604460009054906101000a900473ffffffffffffffffffffffffffffffffffffffff1673ffffffffffffffffffffffffffffffffffffffff163373ffffffffffffffffffffffffffffffffffffffff16146116a9576040517f08c379a00000000000000000000000000000000000000000000000000000000081526004018080602001828103825260098152602001807f4e6f742061646d696e000000000000000000000000000000000000000000000081525060200191505060405180910390fd5b83518551146116b457fe5b60008090505b85518160ff16101561191757600073ffffffffffffffffffffffffffffffffffffffff16858260ff16815181106116ed57fe5b602002602001015173ffffffffffffffffffffffffffffffffffffffff16141561171357fe5b848160ff168151811061172257fe5b6020026020010151603b6000888460ff168151811061173d57fe5b6020026020010151815260200190815260200160002060006101000a81548173ffffffffffffffffffffffffffffffffffffffff021916908373ffffffffffffffffffffffffffffffffffffffff160217905550600060436000888460ff16815181106117a657fe5b6020026020010151815260200190815260200160002060006101000a81548160ff021916908360018111156117d757fe5b0217905550838160ff16815181106117eb57fe5b602002602001015160416000888460ff168151811061180657fe5b6020026020010151815260200190815260200160002081905550828160ff168151811061182f57fe5b602002602001015160466000888460ff168151811061184a57fe5b6020026020010151815260200190815260200160002081905550828160ff168151811061187357fe5b602002602001015160466000888460ff168151811061188e57fe5b6020026020010151815260200190815260200160002081905550858160ff16815181106118b757fe5b60200260200101517f210ae353ce16aa90d4e1030c30c12482a2dc45bbfed71e98267e93fb7684fa07858360ff16815181106118ef57fe5b60200260200101516040518082815260200191505060405180910390a28060010190506116ba565b505050505050565b603d6020528060005260406000206000915054906101000a900473ffffffffffffffffffffffffffffffffffffffff1681565b600080600080604860009054906101000a900473ffffffffffffffffffffffffffffffffffffffff1673ffffffffffffffffffffffffffffffffffffffff1663b5b134a06049600088815260200190815260200160002060009054906101000a900460a01b6040518263ffffffff1660e01b8152600401808273ffffffffffffffffffffffffffffffffffffffff191673ffffffffffffffffffffffffffffffffffffffff1916815260200191505060206040518083038186803b158015611a1957600080fd5b505afa158015611a2d573d6000803e3d6000fd5b505050506040513d6020811015611a4357600080fd5b8101908080519060200190929190505050905060008173ffffffffffffffffffffffffffffffffffffffff16636b8899526040518163ffffffff1660e01b815260040160206040518083038186803b158015611a9e57600080fd5b505afa158015611ab2573d6000803e3d6000fd5b505050506040513d6020811015611ac857600080fd5b8101908080519060200190929190505050905060008273ffffffffffffffffffffffffffffffffffffffff16632fc523776040518163ffffffff1660e01b815260040160206040518083038186803b158015611b2357600080fd5b505afa158015611b37573d6000803e3d6000fd5b505050506040513d6020811015611b4d57600080fd5b8101908080519060200190929190505050905060008373ffffffffffffffffffffffffffffffffffffffff16636df8f6e66040518163ffffffff1660e01b815260040160206040518083038186803b158015611ba857600080fd5b505afa158015611bbc573d6000803e3d6000fd5b505050506040513d6020811015611bd257600080fd5b81019080805190602001909291905050509050828282965096509650505050509193909250565b603460009054906101000a900473ffffffffffffffffffffffffffffffffffffffff1681565b603b6020528060005260406000206000915054906101000a900473ffffffffffffffffffffffffffffffffffffffff1681565b611c5b33612f93565b565b60366020528060005260406000206000915090505481565b600080603d600084815260200190815260200160002060009054906101000a900473ffffffffffffffffffffffffffffffffffffffff169050611cb781613770565b915050919050565b603f602052816000526040600020602052806000526040600020600091509150505481565b604860009054906101000a900473ffffffffffffffffffffffffffffffffffffffff1681565b6000611d1582612e3c565b9050600081118015611d665750603960008373ffffffffffffffffffffffffffffffffffffffff1673ffffffffffffffffffffffffffffffffffffffff168152602001908152602001600020548110155b15611ecb576000603860008473ffffffffffffffffffffffffffffffffffffffff1673ffffffffffffffffffffffffffffffffffffffff1681526020019081526020016000205490506000611e39611e2a84611e1c603960008973ffffffffffffffffffffffffffffffffffffffff1673ffffffffffffffffffffffffffffffffffffffff16815260200190815260200160002054611e0e8742613e9c90919063ffffffff16565b613f2590919063ffffffff16565b613fab90919063ffffffff16565b8361403a90919063ffffffff16565b905080603860008673ffffffffffffffffffffffffffffffffffffffff1673ffffffffffffffffffffffffffffffffffffffff168152602001908152602001600020819055506000603960008673ffffffffffffffffffffffffffffffffffffffff1673ffffffffffffffffffffffffffffffffffffffff168152602001908152602001600020819055505050611fa5565b42603860008473ffffffffffffffffffffffffffffffffffffffff1673ffffffffffffffffffffffffffffffffffffffff16815260200190815260200160002081905550611f6181603960008573ffffffffffffffffffffffffffffffffffffffff1673ffffffffffffffffffffffffffffffffffffffff16815260200190815260200160002054613e9c90919063ffffffff16565b603960008473ffffffffffffffffffffffffffffffffffffffff1673ffffffffffffffffffffffffffffffffffffffff168152602001908152602001600020819055505b603960008373ffffffffffffffffffffffffffffffffffffffff1673ffffffffffffffffffffffffffffffffffffffff168152602001908152602001600020548273ffffffffffffffffffffffffffffffffffffffff167ff577d8d6d15e285afdb38e070d8a5b4c0c72cb9f56708d148024016680b3838a60405160405180910390a35050565b60336020528060005260406000206000915090505481565b6000806037600084815260200190815260200160002054141561206a5760009050612107565b6121046301e133806120f66042546120e860416000888152602001908152602001600020546120da6120b8603760008b81526020019081526020016000205442613e9c90919063ffffffff16565b603360008b815260200190815260200160002054613f2590919063ffffffff16565b613f2590919063ffffffff16565b613fab90919063ffffffff16565b613fab90919063ffffffff16565b90505b919050565b603e6020528160005260406000206020528060005260406000206000915091509054906101000a900460ff1681565b6000603c60008373ffffffffffffffffffffffffffffffffffffffff1673ffffffffffffffffffffffffffffffffffffffff16815260200190815260200160002054116121f0576040517f08c379a00000000000000000000000000000000000000000000000000000000081526004018080602001828103825260128152602001807f4e6f2066756e647320617661696c61626c65000000000000000000000000000081525060200191505060405180910390fd5b8073ffffffffffffffffffffffffffffffffffffffff166108fc603c60008473ffffffffffffffffffffffffffffffffffffffff1673ffffffffffffffffffffffffffffffffffffffff168152602001908152602001600020549081150290604051600060405180830381858888f19350505050158015612275573d6000803e3d6000fd5b506000603c60008373ffffffffffffffffffffffffffffffffffffffff1673ffffffffffffffffffffffffffffffffffffffff1681526020019081526020016000208190555050565b6000336122ca81611d0a565b6122d3836140c2565b50919050565b600060019054906101000a900460ff16806122f857506122f7614256565b5b8061230f57506000809054906101000a900460ff16155b612364576040517f08c379a000000000000000000000000000000000000000000000000000000000815260040180806020018281038252602e815260200180614984602e913960400191505060405180910390fd5b60008060019054906101000a900460ff1615905080156123b4576001600060016101000a81548160ff02191690831515021790555060016000806101000a81548160ff0219169083151502179055505b85603460006101000a81548173ffffffffffffffffffffffffffffffffffffffff021916908373ffffffffffffffffffffffffffffffffffffffff16021790555082604760006101000a81548173ffffffffffffffffffffffffffffffffffffffff021916908373ffffffffffffffffffffffffffffffffffffffff16021790555081604860006101000a81548173ffffffffffffffffffffffffffffffffffffffff021916908373ffffffffffffffffffffffffffffffffffffffff16021790555084604460006101000a81548173ffffffffffffffffffffffffffffffffffffffff021916908373ffffffffffffffffffffffffffffffffffffffff1602179055508360428190555080156124e05760008060016101000a81548160ff0219169083151502179055505b505050505050565b6124f13361213b565b565b60006040600083815260200190815260200160002054421415612519576000905061256d565b6000612541604060008581526020019081526020016000205442613e9c90919063ffffffff16565b9050612569604660008581526020019081526020016000205482613f2590919063ffffffff16565b9150505b92915050565b81603b600082815260200190815260200160002060009054906101000a900473ffffffffffffffffffffffffffffffffffffffff1673ffffffffffffffffffffffffffffffffffffffff163373ffffffffffffffffffffffffffffffffffffffff16148061262e5750604460009054906101000a900473ffffffffffffffffffffffffffffffffffffffff1673ffffffffffffffffffffffffffffffffffffffff163373ffffffffffffffffffffffffffffffffffffffff16145b6126a0576040517f08c379a00000000000000000000000000000000000000000000000000000000081526004018080602001828103825260178152602001807f4e6f742062656e65666163746f72206f722061646d696e00000000000000000081525060200191505060405180910390fd5b6000603b600085815260200190815260200160002060009054906101000a900473ffffffffffffffffffffffffffffffffffffffff16905082603b600086815260200190815260200160002060006101000a81548173ffffffffffffffffffffffffffffffffffffffff021916908373ffffffffffffffffffffffffffffffffffffffff160217905550603c60008273ffffffffffffffffffffffffffffffffffffffff1673ffffffffffffffffffffffffffffffffffffffff16815260200190815260200160002054603c60008573ffffffffffffffffffffffffffffffffffffffff1673ffffffffffffffffffffffffffffffffffffffff168152602001908152602001600020819055506000603c60008373ffffffffffffffffffffffffffffffffffffffff1673ffffffffffffffffffffffffffffffffffffffff1681526020019081526020016000208190555050505050565b60436020528060005260406000206000915054906101000a900460ff1681565b60406020528060005260406000206000915090505481565b604760009054906101000a900473ffffffffffffffffffffffffffffffffffffffff1681565b60466020528060005260406000206000915090505481565b60008061287a83612044565b4291509150915091565b60376020528060005260406000206000915090505481565b604460009054906101000a900473ffffffffffffffffffffffffffffffffffffffff1673ffffffffffffffffffffffffffffffffffffffff163373ffffffffffffffffffffffffffffffffffffffff161461295f576040517f08c379a00000000000000000000000000000000000000000000000000000000081526004018080602001828103825260098152602001807f4e6f742061646d696e000000000000000000000000000000000000000000000081525060200191505060405180910390fd5b80604460006101000a81548173ffffffffffffffffffffffffffffffffffffffff021916908373ffffffffffffffffffffffffffffffffffffffff16021790555050565b60496020528060005260406000206000915054906101000a900460a01b81565b60386020528060005260406000206000915090505481565b81603d600082815260200190815260200160002060009054906101000a900473ffffffffffffffffffffffffffffffffffffffff1673ffffffffffffffffffffffffffffffffffffffff163373ffffffffffffffffffffffffffffffffffffffff1614612ab0576040517f08c379a000000000000000000000000000000000000000000000000000000000815260040180806020018281038252600a8152602001807f4e6f7420706174726f6e0000000000000000000000000000000000000000000081525060200191505060405180910390fd5b82612aba8161387e565b60006001811115612ac757fe5b6043600086815260200190815260200160002060009054906101000a900460ff166001811115612af357fe5b1415612b67576040517f08c379a000000000000000000000000000000000000000000000000000000000815260040180806020018281038252600a8152602001807f466f7265636c6f7365640000000000000000000000000000000000000000000081525060200191505060405180910390fd5b6000831415612bde576040517f08c379a000000000000000000000000000000000000000000000000000000000815260040180806020018281038252600f8152602001807f496e636f7272656374205072696365000000000000000000000000000000000081525060200191505060405180910390fd5b612c9f612c07604160008781526020019081526020016000205485613f2590919063ffffffff16565b612c91612c436041600089815260200190815260200160002054603360008a815260200190815260200160002054613f2590919063ffffffff16565b603a60003373ffffffffffffffffffffffffffffffffffffffff1673ffffffffffffffffffffffffffffffffffffffff16815260200190815260200160002054613e9c90919063ffffffff16565b61403a90919063ffffffff16565b603a60003373ffffffffffffffffffffffffffffffffffffffff1673ffffffffffffffffffffffffffffffffffffffff1681526020019081526020016000208190555082603360008681526020019081526020016000208190555060336000858152602001908152602001600020547f854d6511a28585103049c7770618450f7c9aeb580c69db2913d63869663f475160405160405180910390a250505050565b60425481565b600080603a60008473ffffffffffffffffffffffffffffffffffffffff1673ffffffffffffffffffffffffffffffffffffffff168152602001908152602001600020541415612d985760009050612e37565b6000612e046301e13380612df6604254603a60008873ffffffffffffffffffffffffffffffffffffffff1673ffffffffffffffffffffffffffffffffffffffff16815260200190815260200160002054613fab90919063ffffffff16565b613fab90919063ffffffff16565b9050612e33612e2482612e1686613655565b613fab90919063ffffffff16565b4261403a90919063ffffffff16565b9150505b919050565b600080603860008473ffffffffffffffffffffffffffffffffffffffff1673ffffffffffffffffffffffffffffffffffffffff168152602001908152602001600020541415612e8e5760009050612f5e565b612f5b6301e13380612f4d604254612f3f612ef1603860008973ffffffffffffffffffffffffffffffffffffffff1673ffffffffffffffffffffffffffffffffffffffff1681526020019081526020016000205442613e9c90919063ffffffff16565b603a60008973ffffffffffffffffffffffffffffffffffffffff1673ffffffffffffffffffffffffffffffffffffffff16815260200190815260200160002054613f2590919063ffffffff16565b613fab90919063ffffffff16565b613fab90919063ffffffff16565b90505b919050565b603c6020528060005260406000206000915090505481565b60356020528060005260406000206000915090505481565b6000603a60008373ffffffffffffffffffffffffffffffffffffffff1673ffffffffffffffffffffffffffffffffffffffff1681526020019081526020016000205411613048576040517f08c379a000000000000000000000000000000000000000000000000000000000815260040180806020018281038252600f8152602001807f4e6f20746f6b656e73206f776e6564000000000000000000000000000000000081525060200191505060405180910390fd5b61309a34603960008473ffffffffffffffffffffffffffffffffffffffff1673ffffffffffffffffffffffffffffffffffffffff1681526020019081526020016000205461403a90919063ffffffff16565b603960008373ffffffffffffffffffffffffffffffffffffffff1673ffffffffffffffffffffffffffffffffffffffff1681526020019081526020016000208190555050565b6000806130ec83612e3c565b4291509150915091565b816131008161387e565b3361310a81611d0a565b60008311613180576040517f08c379a000000000000000000000000000000000000000000000000000000000815260040180806020018281038252600d8152602001807f5072696365206973207a65726f0000000000000000000000000000000000000081525060200191505060405180910390fd5b60336000858152602001908152602001600020543411613208576040517f08c379a000000000000000000000000000000000000000000000000000000000815260040180806020018281038252600a8152602001807f4e6f7420656e6f7567680000000000000000000000000000000000000000000081525060200191505060405180910390fd5b6000603460009054906101000a900473ffffffffffffffffffffffffffffffffffffffff1673ffffffffffffffffffffffffffffffffffffffff16636352211e866040518263ffffffff1660e01b81526004018082815260200191505060206040518083038186803b15801561327d57600080fd5b505afa158015613291573d6000803e3d6000fd5b505050506040513d60208110156132a757600080fd5b810190808051906020019092919050505090506000603d600087815260200190815260200160002060009054906101000a900473ffffffffffffffffffffffffffffffffffffffff1690506001808111156132fe57fe5b6043600088815260200190815260200160002060009054906101000a900460ff16600181111561332a57fe5b14156134b4576000603360008881526020019081526020016000205490506133816041600089815260200190815260200160002054603360008a815260200190815260200160002054613f2590919063ffffffff16565b603a60008473ffffffffffffffffffffffffffffffffffffffff1673ffffffffffffffffffffffffffffffffffffffff16815260200190815260200160002054141561346157613419603960008473ffffffffffffffffffffffffffffffffffffffff1673ffffffffffffffffffffffffffffffffffffffff168152602001908152602001600020548261403a90919063ffffffff16565b90506000603960008473ffffffffffffffffffffffffffffffffffffffff1673ffffffffffffffffffffffffffffffffffffffff168152602001908152602001600020819055505b60008290508073ffffffffffffffffffffffffffffffffffffffff166108fc839081150290604051600060405180830381858888f193505050501580156134ac573d6000803e3d6000fd5b505050613542565b600060018111156134c157fe5b6043600088815260200190815260200160002060009054906101000a900460ff1660018111156134ed57fe5b14156135415760016043600088815260200190815260200160002060006101000a81548160ff0219169083600181111561352357fe5b02179055504260376000888152602001908152602001600020819055505b5b6135b961356b603360008981526020019081526020016000205434613e9c90919063ffffffff16565b603960003373ffffffffffffffffffffffffffffffffffffffff1673ffffffffffffffffffffffffffffffffffffffff1681526020019081526020016000205461403a90919063ffffffff16565b603960003373ffffffffffffffffffffffffffffffffffffffff1673ffffffffffffffffffffffffffffffffffffffff168152602001908152602001600020819055506136098683833389614267565b843373ffffffffffffffffffffffffffffffffffffffff167f4f79409f494e81c38036d80aa8a6507c2cb08d90bfb2fead5519447646b3497e60405160405180910390a3505050505050565b60008061366183612e3c565b9050603960008473ffffffffffffffffffffffffffffffffffffffff1673ffffffffffffffffffffffffffffffffffffffff1681526020019081526020016000205481106136b3576000915050613709565b61370581603960008673ffffffffffffffffffffffffffffffffffffffff1673ffffffffffffffffffffffffffffffffffffffff16815260200190815260200160002054613e9c90919063ffffffff16565b9150505b919050565b600080603d600084815260200190815260200160002060009054906101000a900473ffffffffffffffffffffffffffffffffffffffff16905061375081612d46565b915050919050565b60416020528060005260406000206000915090505481565b6000603960008373ffffffffffffffffffffffffffffffffffffffff1673ffffffffffffffffffffffffffffffffffffffff168152602001908152602001600020546137bb83612e3c565b106137c957600190506137ce565b600090505b919050565b336137dd81611d0a565b613825603960003373ffffffffffffffffffffffffffffffffffffffff1673ffffffffffffffffffffffffffffffffffffffff168152602001908152602001600020546140c2565b50565b60396020528060005260406000206000915090505481565b604460009054906101000a900473ffffffffffffffffffffffffffffffffffffffff1681565b603a6020528060005260406000206000915090505481565b60018081111561388a57fe5b6043600083815260200190815260200160002060009054906101000a900460ff1660018111156138b657fe5b1415613e99576000603d600083815260200190815260200160002060009054906101000a900473ffffffffffffffffffffffffffffffffffffffff169050600060376000848152602001908152602001600020549050600061391783612e3c565b90506000603960008573ffffffffffffffffffffffffffffffffffffffff1673ffffffffffffffffffffffffffffffffffffffff168152602001908152602001600020548210613ba4576000613a69613a1b84613a0d603960008a73ffffffffffffffffffffffffffffffffffffffff1673ffffffffffffffffffffffffffffffffffffffff168152602001908152602001600020546139ff603860008c73ffffffffffffffffffffffffffffffffffffffff1673ffffffffffffffffffffffffffffffffffffffff1681526020019081526020016000205442613e9c90919063ffffffff16565b613f2590919063ffffffff16565b613fab90919063ffffffff16565b603860008873ffffffffffffffffffffffffffffffffffffffff1673ffffffffffffffffffffffffffffffffffffffff1681526020019081526020016000205461403a90919063ffffffff16565b905080603760008881526020019081526020016000208190555080603860008773ffffffffffffffffffffffffffffffffffffffff1673ffffffffffffffffffffffffffffffffffffffff16815260200190815260200160002081905550613b4e6301e13380613b40604254613b32604160008c815260200190815260200160002054613b24613b028b89613e9c90919063ffffffff16565b603360008f815260200190815260200160002054613f2590919063ffffffff16565b613f2590919063ffffffff16565b613fab90919063ffffffff16565b613fab90919063ffffffff16565b91506000603960008773ffffffffffffffffffffffffffffffffffffffff1673ffffffffffffffffffffffffffffffffffffffff16815260200190815260200160002081905550613b9e866147d4565b50613d5c565b613c2b6301e13380613c1d604254613c0f604160008b815260200190815260200160002054613c01613bdf8a42613e9c90919063ffffffff16565b603360008e815260200190815260200160002054613f2590919063ffffffff16565b613f2590919063ffffffff16565b613fab90919063ffffffff16565b613fab90919063ffffffff16565b905042603760008781526020019081526020016000208190555042603860008673ffffffffffffffffffffffffffffffffffffffff1673ffffffffffffffffffffffffffffffffffffffff16815260200190815260200160002081905550613caf81603660008881526020019081526020016000205461403a90919063ffffffff16565b6036600087815260200190815260200160002081905550613d1882603960008773ffffffffffffffffffffffffffffffffffffffff1673ffffffffffffffffffffffffffffffffffffffff16815260200190815260200160002054613e9c90919063ffffffff16565b603960008673ffffffffffffffffffffffffffffffffffffffff1673ffffffffffffffffffffffffffffffffffffffff168152602001908152602001600020819055505b613d8281603560008881526020019081526020016000205461403a90919063ffffffff16565b60356000878152602001908152602001600020819055506000603b600087815260200190815260200160002060009054906101000a900473ffffffffffffffffffffffffffffffffffffffff169050613e2382603c60008473ffffffffffffffffffffffffffffffffffffffff1673ffffffffffffffffffffffffffffffffffffffff1681526020019081526020016000205461403a90919063ffffffff16565b603c60008373ffffffffffffffffffffffffffffffffffffffff1673ffffffffffffffffffffffffffffffffffffffff16815260200190815260200160002081905550817f54acb82a9e70d7c289b149758d23167c915428ae854a7aa4abe5bf2f4ef29f3660405160405180910390a250505050505b50565b600082821115613f14576040517f08c379a000000000000000000000000000000000000000000000000000000000815260040180806020018281038252601e8152602001807f536166654d6174683a207375627472616374696f6e206f766572666c6f77000081525060200191505060405180910390fd5b600082840390508091505092915050565b600080831415613f385760009050613fa5565b6000828402905082848281613f4957fe5b0414613fa0576040517f08c379a00000000000000000000000000000000000000000000000000000000081526004018080602001828103825260218152602001806149636021913960400191505060405180910390fd5b809150505b92915050565b6000808211614022576040517f08c379a000000000000000000000000000000000000000000000000000000000815260040180806020018281038252601a8152602001807f536166654d6174683a206469766973696f6e206279207a65726f00000000000081525060200191505060405180910390fd5b600082848161402d57fe5b0490508091505092915050565b6000808284019050838110156140b8576040517f08c379a000000000000000000000000000000000000000000000000000000000815260040180806020018281038252601b8152602001807f536166654d6174683a206164646974696f6e206f766572666c6f77000000000081525060200191505060405180910390fd5b8091505092915050565b80603960003373ffffffffffffffffffffffffffffffffffffffff1673ffffffffffffffffffffffffffffffffffffffff168152602001908152602001600020541015614177576040517f08c379a00000000000000000000000000000000000000000000000000000000081526004018080602001828103825260148152602001807f5769746864726177696e6720746f6f206d75636800000000000000000000000081525060200191505060405180910390fd5b6141c981603960003373ffffffffffffffffffffffffffffffffffffffff1673ffffffffffffffffffffffffffffffffffffffff16815260200190815260200160002054613e9c90919063ffffffff16565b603960003373ffffffffffffffffffffffffffffffffffffffff1673ffffffffffffffffffffffffffffffffffffffff168152602001908152602001600020819055503373ffffffffffffffffffffffffffffffffffffffff166108fc829081150290604051600060405180830381858888f19350505050158015614252573d6000803e3d6000fd5b5050565b600080303b90506000811491505090565b6142de614290604160008881526020019081526020016000205483613f2590919063ffffffff16565b603a60008573ffffffffffffffffffffffffffffffffffffffff1673ffffffffffffffffffffffffffffffffffffffff1681526020019081526020016000205461403a90919063ffffffff16565b603a60008473ffffffffffffffffffffffffffffffffffffffff1673ffffffffffffffffffffffffffffffffffffffff168152602001908152602001600020819055506143ab61435d60416000888152602001908152602001600020546033600089815260200190815260200160002054613f2590919063ffffffff16565b603a60008673ffffffffffffffffffffffffffffffffffffffff1673ffffffffffffffffffffffffffffffffffffffff16815260200190815260200160002054613e9c90919063ffffffff16565b603a60008573ffffffffffffffffffffffffffffffffffffffff1673ffffffffffffffffffffffffffffffffffffffff16815260200190815260200160002081905550600061442960406000888152602001908152602001600020546037600089815260200190815260200160002054613e9c90919063ffffffff16565b905061448e81603f600089815260200190815260200160002060008773ffffffffffffffffffffffffffffffffffffffff1673ffffffffffffffffffffffffffffffffffffffff1681526020019081526020016000205461403a90919063ffffffff16565b603f600088815260200190815260200160002060008673ffffffffffffffffffffffffffffffffffffffff1673ffffffffffffffffffffffffffffffffffffffff16815260200190815260200160002081905550604760009054906101000a900473ffffffffffffffffffffffffffffffffffffffff1673ffffffffffffffffffffffffffffffffffffffff166340c10f1986614547604660008b81526020019081526020016000205485613f2590919063ffffffff16565b6040518363ffffffff1660e01b8152600401808373ffffffffffffffffffffffffffffffffffffffff1673ffffffffffffffffffffffffffffffffffffffff16815260200182815260200192505050602060405180830381600087803b1580156145b057600080fd5b505af11580156145c4573d6000803e3d6000fd5b505050506040513d60208110156145da57600080fd5b810190808051906020019092919050505050603460009054906101000a900473ffffffffffffffffffffffffffffffffffffffff1673ffffffffffffffffffffffffffffffffffffffff166323b872dd8685896040518463ffffffff1660e01b8152600401808473ffffffffffffffffffffffffffffffffffffffff1673ffffffffffffffffffffffffffffffffffffffff1681526020018373ffffffffffffffffffffffffffffffffffffffff1673ffffffffffffffffffffffffffffffffffffffff1681526020018281526020019350505050600060405180830381600087803b1580156146c957600080fd5b505af11580156146dd573d6000803e3d6000fd5b5050505082603d600088815260200190815260200160002060006101000a81548173ffffffffffffffffffffffffffffffffffffffff021916908373ffffffffffffffffffffffffffffffffffffffff1602179055508160336000888152602001908152602001600020819055504260406000888152602001908152602001600020819055506001603e600088815260200190815260200160002060008573ffffffffffffffffffffffffffffffffffffffff1673ffffffffffffffffffffffffffffffffffffffff16815260200190815260200160002060006101000a81548160ff021916908315150217905550505050505050565b6000603460009054906101000a900473ffffffffffffffffffffffffffffffffffffffff1673ffffffffffffffffffffffffffffffffffffffff16636352211e836040518263ffffffff1660e01b81526004018082815260200191505060206040518083038186803b15801561484957600080fd5b505afa15801561485d573d6000803e3d6000fd5b505050506040513d602081101561487357600080fd5b810190808051906020019092919050505090506000603d600084815260200190815260200160002060009054906101000a900473ffffffffffffffffffffffffffffffffffffffff1690506148cc838383306000614267565b60006043600085815260200190815260200160002060006101000a81548160ff021916908360018111156148fc57fe5b0217905550600060366000858152602001908152602001600020819055508173ffffffffffffffffffffffffffffffffffffffff167f6d6bbefef62d4cb6d0e3a4dd306a71d3632319b1e03659513df86b247dd657fe60405160405180910390a250505056fe536166654d6174683a206d756c7469706c69636174696f6e206f766572666c6f77436f6e747261637420696e7374616e63652068617320616c7265616479206265656e20696e697469616c697a6564a165627a7a723058204a46ecff7ef32f64381747a5fe912fb8922d478057c10d24b5a4078de88100250029",
  "source": "pragma solidity ^0.5.0;\nimport \"./ERC721Patronage_v0.sol\";\nimport \"./ERC20PatronageReceipt_v0.sol\";\nimport \"./CSCRegistry.sol\";\nimport \"./CSC.sol\";\n\ncontract CarbonCreditSteward_v0 is Initializable {\n\n    /*\n    This smart contract collects patronage from current owner through a Harberger tax model and \n    takes stewardship of the asset token if the patron can't pay anymore.\n\n    Harberger Tax (COST): \n    - Asset is always on sale.\n    - You have to have a price set.\n    - Tax (Patronage) is paid to maintain ownership.\n    - Steward maints control over ERC721.\n    */\n    using SafeMath for uint256;\n\n    mapping(uint256 => uint256) public price; //in wei\n    ERC721Patronage_v0 public assetToken; // ERC721 NFT.\n\n    mapping(uint256 => uint256) public totalCollected; // all patronage ever collected\n    mapping(uint256 => uint256) public currentCollected; // amount currently collected for patron\n    mapping(uint256 => uint256) public timeLastCollected;\n    mapping(address => uint256) public timeLastCollectedPatron;\n    mapping(address => uint256) public deposit;\n    mapping(address => uint256) public totalPatronOwnedTokenCost;\n\n    mapping(uint256 => address payable) public benefactors; // non-profit benefactor\n    mapping(address => uint256) public benefactorFunds;\n\n    mapping(uint256 => address) public currentPatron; // This is different to the current token owner.\n    mapping(uint256 => mapping (address => bool)) public patrons;\n    mapping(uint256 => mapping (address => uint256)) public timeHeld;\n\n    mapping(uint256 => uint256) public timeAcquired;\n\n    // 1200% patronage\n    mapping(uint256 => uint256) public patronageNumerator;\n    uint256 public patronageDenominator;\n\n    enum StewardState { Foreclosed, Owned }\n    mapping(uint256 => StewardState) public state;\n\n    address public admin;\n\n\n    // ////////////////////// //\n    // Design spec for hack   //\n    // ////////////////////// //\n    // GOAL: Create a mechanism where holding an always4sale NFT\n    // for a certain period of time, allows the owner to mint/recieve ERC20 tokens.\n    // i.e. Hold an NFT for 1 day may yield 1 ERC20 token.\n\n    // Context: Berlin hackathon (diffusion2019)\n    // User holds an NFT representing the land of spekboom plantation.\n    // If the user holds this land for 1 month, they will have offset X tons of carbon\n    // They therefore recieve X carbon credits (ERC20 tokens).\n    // These tokens can then be burned to verify the carbon neutrality of the entity.\n    \n    // ////////////////////// //\n    // New variables required //\n    // ////////////////////// //\n\n    mapping(uint256 => mapping (address => uint256)) public tokensGenerated;\n\n    // Rate at which CarbonCredits will be generated from the NFT.\n    // Intital idea, depending on the land size of the NFT, 1 square meter,\n    // will produce 1 carbon credit per day.\n    // i.e. an NFT representing 50 square meters will yeild the owner\n    // 50 carbon credits per day.\n    mapping(uint256 => uint256) public tokenGenerationRate; // we can reuse the patronage denominator\n    ERC20PatronageReceipt_v0 public carbonCredit;\n    CSCRegistry public cscRegistry;\n    mapping(uint256 => bytes12) public cryptoSpacialCoordinates; // we can reuse the patronage denominator\n\n    event LogBuy(address indexed owner, uint256 indexed price);\n    event LogPriceChange(uint256 indexed newPrice);\n    event LogForeclosure(address indexed prevOwner);\n    event LogCollection(uint256 indexed collected);\n    event LogRemainingDepositUpdate(address indexed tokenPatron, uint256 indexed remainingDeposit);\n    event AddToken(uint256 indexed tokenId, uint256 patronageNumerator);\n\n    modifier onlyPatron(uint256 tokenId) {\n        require(msg.sender == currentPatron[tokenId], \"Not patron\");\n        _;\n    }\n\n    // modifier onlyReceivingBenefactor(uint256 tokenId) {\n    //     require(msg.sender == benefactors[tokenId], \"Not benefactor\");\n    //     _;\n    // }\n\n    modifier onlyAdmin() {\n        require(msg.sender == admin, \"Not admin\");\n        _;\n    }\n\n     modifier onlyReceivingBenefactorOrAdmin(uint256 tokenId) {\n        require(msg.sender == benefactors[tokenId] || msg.sender == admin, \"Not benefactor or admin\");\n        _;\n    }\n\n    modifier collectPatronage(uint256 tokenId) {\n       _collectPatronage(tokenId);\n       _;\n    }\n\n    modifier collectPatronageAddress(address tokenPatron) {\n       _collectPatronagePatron(tokenPatron);\n       _;\n    }\n\n    function initialize(address _assetToken, address _admin, uint256 _patronageDenominator, address _carbonCredit, address _cscRegistry) public initializer {\n        assetToken = ERC721Patronage_v0(_assetToken);\n        carbonCredit = ERC20PatronageReceipt_v0(_carbonCredit);\n        cscRegistry = CSCRegistry(_cscRegistry);\n        admin = _admin;\n        patronageDenominator = _patronageDenominator;\n    }\n\n    // TODO:: add validation that the token that is complient with the \"PatronageToken\" ERC721 interface extension somehow!\n    function listNewTokens(\n      uint256[] memory tokens, \n      address payable[] memory _benefactors, \n      uint256[] memory _patronageNumerator, \n      uint256[] memory _tokenGenerationRate,\n      bytes12[] memory _cryptoSpacialCoordinates\n     ) public onlyAdmin {\n        assert(tokens.length == _benefactors.length);\n        for (uint8 i = 0; i < tokens.length; ++i){\n            assert(_benefactors[i]!=address(0));\n            benefactors[tokens[i]] = _benefactors[i];\n            state[tokens[i]] = StewardState.Foreclosed;\n            patronageNumerator[tokens[i]] = _patronageNumerator[i];\n            tokenGenerationRate[tokens[i]] = _tokenGenerationRate[i];\n            tokenGenerationRate[tokens[i]] = _tokenGenerationRate[i];\n            emit AddToken(tokens[i], _patronageNumerator[i]);\n        }\n    }\n\n    function getVerifications(uint256 tokenId) public returns (bool, bool, bool) {\n      CSC csc = CSC(cscRegistry.registry(cryptoSpacialCoordinates[tokenId]));\n      bool isVerifiedByPublic = csc.isVerifiedByPublic();\n      bool isVerifiedByChainlink = csc.isVerifiedByChainlink();\n      bool isVerifiedByIExec = csc.isVerifiedByIExec();\n\n      return (isVerifiedByPublic, isVerifiedByChainlink, isVerifiedByIExec);\n    }\n\n    function changeReceivingBenefactor(uint256 tokenId, address payable _newReceivingBenefactor)\n    public onlyReceivingBenefactorOrAdmin(tokenId) {\n        address oldBenfactor = benefactors[tokenId];\n        benefactors[tokenId] = _newReceivingBenefactor;\n        benefactorFunds[_newReceivingBenefactor] = benefactorFunds[oldBenfactor];\n        benefactorFunds[oldBenfactor] = 0;\n    }\n\n    function changeAdmin(address _admin) public onlyAdmin {\n        admin = _admin;\n    }\n\n    /* public view functions */\n    function patronageOwed(uint256 tokenId) public view returns (uint256 patronageDue) {\n        if (timeLastCollected[tokenId] == 0) return 0;\n\n        return price[tokenId].mul(now.sub(timeLastCollected[tokenId])).mul(patronageNumerator[tokenId])\n          .div(patronageDenominator).div(365 days);\n    }\n\n    function patronageOwedWithTimestamp(uint256 tokenId) public view returns (uint256 patronageDue, uint256 timestamp) {\n        return (patronageOwed(tokenId), now);\n    }\n\n    // TODO: make a version of this function that is for patronage owed by token rather than by tokenPatron like it is now.\n    function patronageOwedPatron(address tokenPatron) public view returns (uint256 patronageDue) {\n        if (timeLastCollectedPatron[tokenPatron] == 0) return 0;\n\n        // NOTE/TODO: to cater to different patronage rates, we should include it in the `totalPatronOwnedTokenCost` (and probably rename that variable)\n        return totalPatronOwnedTokenCost[tokenPatron].mul(now.sub(timeLastCollectedPatron[tokenPatron]))\n          .div(patronageDenominator).div(365 days);\n    }\n\n    function creditsDue(address tokenPatron, uint256 tokenId ) public view returns (uint256 creditsDue) {\n        if (now == timeAcquired[tokenId]) return 0;\n        \n         uint256 timeDelta = now.sub(timeAcquired[tokenId]);\n        // note: it would also tabulate time held in stewardship by smart contract\n        return  timeDelta.mul(tokenGenerationRate[tokenId]);\n    }   \n\n    function patronageOwedPatronWithTimestamp(address tokenPatron) public view returns (uint256 patronageDue, uint256 timestamp) {\n        return (patronageOwedPatron(tokenPatron), now);\n    }\n\n    function foreclosedPatron(address tokenPatron) public view returns (bool) {\n        // returns whether it is in foreclosed state or not\n        // depending on whether deposit covers patronage due\n        // useful helper function when price should be zero, but contract doesn't reflect it yet.\n        if (patronageOwedPatron(tokenPatron) >= deposit[tokenPatron]) {\n            return true;\n        } else {\n            return false;\n        }\n    }\n\n    function foreclosed(uint256 tokenId) public view returns (bool) {\n        // returns whether it is in foreclosed state or not\n        // depending on whether deposit covers patronage due\n        // useful helper function when price should be zero, but contract doesn't reflect it yet.\n        address tokenPatron = currentPatron[tokenId];\n        return foreclosedPatron(tokenPatron);\n    }\n\n    // same function as above, basically\n    function depositAbleToWithdraw(address tokenPatron) public view returns (uint256) {\n        uint256 collection = patronageOwedPatron(tokenPatron);\n        if(collection >= deposit[tokenPatron]) {\n            return 0;\n        } else {\n            return deposit[tokenPatron].sub(collection);\n        }\n    }\n\n    /*\n    now + deposit/patronage per second \n    now + depositAbleToWithdraw/(price*nume/denom/365).\n    */\n    function foreclosureTimePatron(address tokenPatron) public view returns (uint256) {\n        if (totalPatronOwnedTokenCost[tokenPatron] == 0) {\n          return 0;\n        }\n        // patronage per second\n        uint256 pps = totalPatronOwnedTokenCost[tokenPatron].div(patronageDenominator).div(365 days);\n        return now.add(depositAbleToWithdraw(tokenPatron).div(pps)); // zero division if price is zero.\n    }\n    function foreclosureTime(uint256 tokenId) public view returns (uint256) {\n        address tokenPatron = currentPatron[tokenId];\n        return foreclosureTimePatron(tokenPatron);\n    }\n\n    /* actions */\n    // TODO:: think of more efficient ways for recipients to collect patronage for lots of tokens at the same time.\n    function _collectPatronage(uint256 tokenId) public {\n        // determine patronage to pay\n        if (state[tokenId] == StewardState.Owned) {\n            address tokenPatron = currentPatron[tokenId];\n            uint256 previousTokenCollection = timeLastCollected[tokenId]; \n            uint256 patronageOwedByTokenPatron = patronageOwedPatron(tokenPatron);\n            uint256 collection;\n\n            // should foreclose and stake stewardship\n            if (patronageOwedByTokenPatron >= deposit[tokenPatron]) {\n                // up to when was it actually paid for?\n                uint256 newTimeLastCollected = timeLastCollectedPatron[tokenPatron].add(((now.sub(timeLastCollectedPatron[tokenPatron])).mul(deposit[tokenPatron]).div(patronageOwedByTokenPatron)));\n\n                timeLastCollected[tokenId] = newTimeLastCollected;\n                timeLastCollectedPatron[tokenPatron] = newTimeLastCollected;\n                collection = price[tokenId].mul(newTimeLastCollected.sub(previousTokenCollection)).mul(patronageNumerator[tokenId]).div(patronageDenominator).div(365 days);\n\n                deposit[tokenPatron] = 0;\n                _foreclose(tokenId);\n            } else {\n                // just a normal collection\n                collection = price[tokenId].mul(now.sub(previousTokenCollection)).mul(patronageNumerator[tokenId]).div(patronageDenominator).div(365 days);\n                timeLastCollected[tokenId] = now;\n                timeLastCollectedPatron[tokenPatron] = now;\n                currentCollected[tokenId] = currentCollected[tokenId].add(collection);\n                deposit[tokenPatron] = deposit[tokenPatron].sub(patronageOwedByTokenPatron);\n            }\n            totalCollected[tokenId] = totalCollected[tokenId].add(collection);\n            address benefactor = benefactors[tokenId];\n            benefactorFunds[benefactor] = benefactorFunds[benefactor].add(collection);\n            emit LogCollection(collection);\n        }\n    }\n\n    // This does accounting without transfering any tokens\n    function _collectPatronagePatron(address tokenPatron) public {\n        uint256 patronageOwedByTokenPatron = patronageOwedPatron(tokenPatron);\n        if (patronageOwedByTokenPatron > 0 && patronageOwedByTokenPatron >= deposit[tokenPatron]) {\n            uint256 previousCollectionTime = timeLastCollectedPatron[tokenPatron];\n            // up to when was it actually paid for?\n            uint256 newTimeLastCollected = previousCollectionTime.add(((now.sub(previousCollectionTime)).mul(deposit[tokenPatron]).div(patronageOwedByTokenPatron)));\n            timeLastCollectedPatron[tokenPatron] = newTimeLastCollected;\n            deposit[tokenPatron] = 0;\n        } else  {\n            timeLastCollectedPatron[tokenPatron] = now;\n            deposit[tokenPatron] = deposit[tokenPatron].sub(patronageOwedByTokenPatron);\n        }\n\n        emit LogRemainingDepositUpdate(tokenPatron, deposit[tokenPatron]);\n    }\n\n    // note: anyone can deposit\n    function depositWei() public payable {\n      depositWeiPatron(msg.sender);\n    }\n    function depositWeiPatron(address patron) public payable {\n        require(totalPatronOwnedTokenCost[patron] > 0, \"No tokens owned\");\n        deposit[patron] = deposit[patron].add(msg.value);\n    }\n\n    function buy(uint256 tokenId, uint256 _newPrice) public payable collectPatronage(tokenId) collectPatronageAddress(msg.sender) {\n        require(_newPrice > 0, \"Price is zero\");\n        require(msg.value > price[tokenId], \"Not enough\"); // >, coz need to have at least something for deposit\n        address currentOwner = assetToken.ownerOf(tokenId);\n        address tokenPatron = currentPatron[tokenId];\n\n        if (state[tokenId] == StewardState.Owned) {\n            uint256 totalToPayBack = price[tokenId];\n            // NOTE: pay back the deposit only if it is the only token the patron owns.\n            if(totalPatronOwnedTokenCost[tokenPatron] == price[tokenId].mul(patronageNumerator[tokenId])) {\n                totalToPayBack = totalToPayBack.add(deposit[tokenPatron]);\n                deposit[tokenPatron] = 0;\n            }\n\n            // pay previous owner their price + deposit back.\n            address payable payableCurrentPatron = address(uint160(tokenPatron));\n            payableCurrentPatron.transfer(totalToPayBack);\n        } else if(state[tokenId] == StewardState.Foreclosed) {\n            state[tokenId] = StewardState.Owned;\n            timeLastCollected[tokenId] = now;\n        }\n\n        deposit[msg.sender] = deposit[msg.sender].add(msg.value.sub(price[tokenId]));\n        transferAssetTokenTo(tokenId, currentOwner, tokenPatron, msg.sender, _newPrice);\n        emit LogBuy(msg.sender, _newPrice);\n    }\n\n    function changePrice(uint256 tokenId, uint256 _newPrice) public onlyPatron(tokenId) collectPatronage(tokenId) {\n        require(state[tokenId] != StewardState.Foreclosed, \"Foreclosed\");\n        require(_newPrice != 0, \"Incorrect Price\");\n\n        totalPatronOwnedTokenCost[msg.sender] = totalPatronOwnedTokenCost[msg.sender]\n          .sub(price[tokenId].mul(patronageNumerator[tokenId]))\n          .add(_newPrice.mul(patronageNumerator[tokenId]));\n\n        price[tokenId] = _newPrice;\n        emit LogPriceChange(price[tokenId]);\n    }\n\n    function withdrawDeposit(uint256 _wei) public collectPatronageAddress(msg.sender) returns (uint256) {\n        _withdrawDeposit(_wei);\n    }\n\n    function withdrawBenefactorFunds() public {\n        withdrawBenefactorFundsTo(msg.sender);\n    }\n\n    function withdrawBenefactorFundsTo(address payable benefactor) public {\n        require(benefactorFunds[benefactor] > 0, \"No funds available\");\n        benefactor.transfer(benefactorFunds[benefactor]);\n        benefactorFunds[benefactor] = 0;\n    }\n\n    function exit() public collectPatronageAddress(msg.sender) {\n        _withdrawDeposit(deposit[msg.sender]);\n    }\n\n    /* internal */\n    function _withdrawDeposit(uint256 _wei) internal {\n        // note: can withdraw whole deposit, which puts it in immediate to be foreclosed state.\n        require(deposit[msg.sender] >= _wei, 'Withdrawing too much');\n\n        deposit[msg.sender] = deposit[msg.sender].sub(_wei);\n        msg.sender.transfer(_wei); // msg.sender == patron\n    }\n\n    function _foreclose(uint256 tokenId) internal {\n        // become steward of assetToken (aka foreclose)\n        address currentOwner = assetToken.ownerOf(tokenId);\n        address tokenPatron = currentPatron[tokenId];\n        transferAssetTokenTo(tokenId, currentOwner, tokenPatron, address(this), 0);\n        state[tokenId] = StewardState.Foreclosed;\n        currentCollected[tokenId] = 0;\n\n        emit LogForeclosure(currentOwner);\n    }\n\n    function transferAssetTokenTo(uint256 tokenId, address _currentOwner, address _currentPatron, address _newOwner, uint256 _newPrice) internal {\n        // TODO: add the patronage rate as a multiplier here: https://github.com/wild-cards/contracts/issues/7\n        totalPatronOwnedTokenCost[_newOwner] = totalPatronOwnedTokenCost[_newOwner].add(_newPrice.mul(patronageNumerator[tokenId]));\n        totalPatronOwnedTokenCost[_currentPatron] = totalPatronOwnedTokenCost[_currentPatron].sub(price[tokenId].mul(patronageNumerator[tokenId]));\n\n        uint256 timeDelta = timeLastCollected[tokenId].sub(timeAcquired[tokenId]);\n\n        // note: it would also tabulate time held in stewardship by smart contract\n        timeHeld[tokenId][_currentPatron] = timeHeld[tokenId][_currentPatron].add(timeDelta);\n        carbonCredit.mint(_currentOwner, timeDelta.mul(tokenGenerationRate[tokenId]));\n        \n        assetToken.transferFrom(_currentOwner, _newOwner, tokenId);\n\n        currentPatron[tokenId] = _newOwner;\n\n        price[tokenId] = _newPrice;\n        timeAcquired[tokenId] = now;\n        patrons[tokenId][_newOwner] = true;\n    }\n}\n",
  "sourcePath": "/home/jasoons/Documents/clean-code/Team-9/contracts/CarbonCreditSteward_v0.sol",
  "compiler": {
    "name": "solc",
    "version": "0.5.8+commit.23d335f2.Emscripten.clang"
  },
  "schemaVersion": "3.0.16",
  "updatedAt": "2019-10-20T10:44:03.273Z",
  "devdoc": {
    "methods": {}
  },
  "userdoc": {
    "methods": {}
  }
}