{
  "contractName": "CSC",
  "abi": [
    {
      "constant": true,
      "inputs": [],
      "name": "geohash",
      "outputs": [
        {
          "name": "",
          "type": "bytes8"
        }
      ],
      "payable": false,
      "stateMutability": "view",
      "type": "function"
    },
    {
      "constant": true,
      "inputs": [],
      "name": "isVerifiedByChainlink",
      "outputs": [
        {
          "name": "",
          "type": "bool"
        }
      ],
      "payable": false,
      "stateMutability": "view",
      "type": "function"
    },
    {
      "constant": true,
      "inputs": [],
      "name": "isVerifiedByPublic",
      "outputs": [
        {
          "name": "",
          "type": "bool"
        }
      ],
      "payable": false,
      "stateMutability": "view",
      "type": "function"
    },
    {
      "constant": true,
      "inputs": [],
      "name": "isVerifiedByIExec",
      "outputs": [
        {
          "name": "",
          "type": "bool"
        }
      ],
      "payable": false,
      "stateMutability": "view",
      "type": "function"
    },
    {
      "constant": true,
      "inputs": [],
      "name": "csc",
      "outputs": [
        {
          "name": "",
          "type": "bytes12"
        }
      ],
      "payable": false,
      "stateMutability": "view",
      "type": "function"
    },
    {
      "inputs": [
        {
          "name": "_geohash",
          "type": "bytes8"
        }
      ],
      "payable": false,
      "stateMutability": "nonpayable",
      "type": "constructor"
    },
    {
      "constant": false,
      "inputs": [
        {
          "name": "cscRegistry",
          "type": "address"
        }
      ],
      "name": "registerWith",
      "outputs": [],
      "payable": false,
      "stateMutability": "nonpayable",
      "type": "function"
    },
    {
      "constant": false,
      "inputs": [
        {
          "name": "value",
          "type": "bool"
        }
      ],
      "name": "setIsVerifiedByPublic",
      "outputs": [],
      "payable": false,
      "stateMutability": "nonpayable",
      "type": "function"
    },
    {
      "constant": false,
      "inputs": [
        {
          "name": "value",
          "type": "bool"
        }
      ],
      "name": "setIsVerifiedByChainlink",
      "outputs": [],
      "payable": false,
      "stateMutability": "nonpayable",
      "type": "function"
    },
    {
      "constant": false,
      "inputs": [
        {
          "name": "value",
          "type": "bool"
        }
      ],
      "name": "setIsVerifiedByIExec",
      "outputs": [],
      "payable": false,
      "stateMutability": "nonpayable",
      "type": "function"
    }
  ],
  "bytecode": "0x608060405234801561001057600080fd5b506040516020806105568339810180604052602081101561003057600080fd5b8101908080519060200190929190505050806000806101000a81548167ffffffffffffffff021916908360c01c02179055506100806000809054906101000a900460c01b306100ab60201b60201c565b600060086101000a8154816bffffffffffffffffffffffff021916908360a01c021790555050610149565b60008282604051602001808377ffffffffffffffffffffffffffffffffffffffffffffffff191677ffffffffffffffffffffffffffffffffffffffffffffffff191681526008018273ffffffffffffffffffffffffffffffffffffffff1673ffffffffffffffffffffffffffffffffffffffff1660601b81526014019250505060405160208183030381529060405280519060200120905092915050565b6103fe806101586000396000f3fe608060405234801561001057600080fd5b50600436106100935760003560e01c80636b889952116100665780636b8899521461016e5780636df8f6e61461019057806370eb1ef0146101b2578063d55c3ca3146101f6578063e76e03361461024257610093565b806308e44f88146100985780632fc52377146100ec57806337f10dfb1461010e5780634676f8171461013e575b600080fd5b6100a0610272565b604051808277ffffffffffffffffffffffffffffffffffffffffffffffff191677ffffffffffffffffffffffffffffffffffffffffffffffff1916815260200191505060405180910390f35b6100f4610284565b604051808215151515815260200191505060405180910390f35b61013c6004803603602081101561012457600080fd5b81019080803515159060200190929190505050610297565b005b61016c6004803603602081101561015457600080fd5b810190808035151590602001909291905050506102b4565b005b6101766102d1565b604051808215151515815260200191505060405180910390f35b6101986102e4565b604051808215151515815260200191505060405180910390f35b6101f4600480360360208110156101c857600080fd5b81019080803573ffffffffffffffffffffffffffffffffffffffff1690602001909291905050506102f7565b005b6101fe6103a2565b604051808273ffffffffffffffffffffffffffffffffffffffff191673ffffffffffffffffffffffffffffffffffffffff1916815260200191505060405180910390f35b6102706004803603602081101561025857600080fd5b810190808035151590602001909291905050506103b5565b005b6000809054906101000a900460c01b81565b600060159054906101000a900460ff1681565b80600060166101000a81548160ff02191690831515021790555050565b80600060156101000a81548160ff02191690831515021790555050565b600060149054906101000a900460ff1681565b600060169054906101000a900460ff1681565b8073ffffffffffffffffffffffffffffffffffffffff1663c5f310c0600060089054906101000a900460a01b6040518263ffffffff1660e01b8152600401808273ffffffffffffffffffffffffffffffffffffffff191673ffffffffffffffffffffffffffffffffffffffff19168152602001915050600060405180830381600087803b15801561038757600080fd5b505af115801561039b573d6000803e3d6000fd5b5050505050565b600060089054906101000a900460a01b81565b80600060146101000a81548160ff0219169083151502179055505056fea165627a7a723058201abe505d7cdd6310d31262b57f4085315ebe62c4c3ea0e292950fa8169838c630029",
  "source": "pragma solidity ^0.5.0;\n\nimport \"./CSCRegistry.sol\";\n\ncontract CSC {\n  bytes8 public geohash;\n  bytes12 public csc;\n  // Is the plot of land verified - different methods\n  //      Lots more TODO here! - Placeholder!\n  bool public isVerifiedByPublic;\n  bool public isVerifiedByChainlink;\n  bool public isVerifiedByIExec;\n\n  constructor(bytes8 _geohash) public {\n    geohash = _geohash;\n    csc = computeCSC(geohash, address(this));\n  }\n\n  function computeCSC(bytes8 geohash_arg, address addr) internal pure returns(bytes12) {\n    return bytes12(keccak256(abi.encodePacked(geohash_arg, addr)));\n  }\n\n  function registerWith(address cscRegistry) public {\n    CSCRegistry(cscRegistry).register(csc);\n  }\n\n  // NOTE:: following 3 functions are temporary until oracle integration is fixed.\n  //        there are no permissions or restrictions, it is purely for demo purposes!\n  function setIsVerifiedByPublic(bool value) public {\n    isVerifiedByPublic = value;\n  }\n  function setIsVerifiedByChainlink(bool value) public {\n    isVerifiedByChainlink = value;\n  }\n  function setIsVerifiedByIExec(bool value) public {\n    isVerifiedByIExec = value;\n  }\n}\n",
  "sourcePath": "/home/jasoons/Documents/clean-code/Team-9/contracts/CSC.sol",
  "compiler": {
    "name": "solc",
    "version": "0.5.8+commit.23d335f2.Emscripten.clang"
  },
  "schemaVersion": "3.0.16",
  "updatedAt": "2019-10-20T10:30:08.118Z",
  "devdoc": {
    "methods": {}
  },
  "userdoc": {
    "methods": {}
  }
}