{
  "contractName": "CSCFactory",
  "abi": [
    {
      "constant": true,
      "inputs": [],
      "name": "cscRegistory",
      "outputs": [
        {
          "name": "",
          "type": "address"
        }
      ],
      "payable": false,
      "stateMutability": "view",
      "type": "function"
    },
    {
      "inputs": [
        {
          "name": "registry",
          "type": "address"
        }
      ],
      "payable": false,
      "stateMutability": "nonpayable",
      "type": "constructor"
    },
    {
      "anonymous": false,
      "inputs": [
        {
          "indexed": false,
          "name": "_address",
          "type": "address"
        },
        {
          "indexed": false,
          "name": "_factoryAddress",
          "type": "address"
        },
        {
          "indexed": false,
          "name": "_geohash",
          "type": "bytes8"
        },
        {
          "indexed": false,
          "name": "_csc",
          "type": "bytes12"
        }
      ],
      "name": "DeployedCSC",
      "type": "event"
    },
    {
      "constant": false,
      "inputs": [
        {
          "name": "_geohash",
          "type": "bytes8"
        }
      ],
      "name": "deploy",
      "outputs": [
        {
          "name": "",
          "type": "address"
        }
      ],
      "payable": false,
      "stateMutability": "nonpayable",
      "type": "function"
    }
  ],
  "bytecode": "0x608060405234801561001057600080fd5b50604051602080610a0e8339810180604052602081101561003057600080fd5b8101908080519060200190929190505050806000806101000a81548173ffffffffffffffffffffffffffffffffffffffff021916908373ffffffffffffffffffffffffffffffffffffffff1602179055505061097d806100916000396000f3fe608060405234801561001057600080fd5b50600436106100365760003560e01c80635ae6bc5b1461003b578063ef1aef9414610085575b600080fd5b61004361010e565b604051808273ffffffffffffffffffffffffffffffffffffffff1673ffffffffffffffffffffffffffffffffffffffff16815260200191505060405180910390f35b6100cc6004803603602081101561009b57600080fd5b81019080803577ffffffffffffffffffffffffffffffffffffffffffffffff19169060200190929190505050610133565b604051808273ffffffffffffffffffffffffffffffffffffffff1673ffffffffffffffffffffffffffffffffffffffff16815260200191505060405180910390f35b6000809054906101000a900473ffffffffffffffffffffffffffffffffffffffff1681565b60008082604051610143906103ee565b808277ffffffffffffffffffffffffffffffffffffffffffffffff191677ffffffffffffffffffffffffffffffffffffffffffffffff19168152602001915050604051809103906000f08015801561019f573d6000803e3d6000fd5b5090508073ffffffffffffffffffffffffffffffffffffffff166370eb1ef06000809054906101000a900473ffffffffffffffffffffffffffffffffffffffff166040518263ffffffff1660e01b8152600401808273ffffffffffffffffffffffffffffffffffffffff1673ffffffffffffffffffffffffffffffffffffffff168152602001915050600060405180830381600087803b15801561024257600080fd5b505af1158015610256573d6000803e3d6000fd5b505050507f1140bc94ebb202d409d60422b19ca85c939630ff633dda8bcb4cd60343c565728130858473ffffffffffffffffffffffffffffffffffffffff1663d55c3ca36040518163ffffffff1660e01b815260040160206040518083038186803b1580156102c457600080fd5b505afa1580156102d8573d6000803e3d6000fd5b505050506040513d60208110156102ee57600080fd5b8101908080519060200190929190505050604051808573ffffffffffffffffffffffffffffffffffffffff1673ffffffffffffffffffffffffffffffffffffffff1681526020018473ffffffffffffffffffffffffffffffffffffffff1673ffffffffffffffffffffffffffffffffffffffff1681526020018377ffffffffffffffffffffffffffffffffffffffffffffffff191677ffffffffffffffffffffffffffffffffffffffffffffffff191681526020018273ffffffffffffffffffffffffffffffffffffffff191673ffffffffffffffffffffffffffffffffffffffff1916815260200194505050505060405180910390a180915050919050565b610556806103fc8339019056fe608060405234801561001057600080fd5b506040516020806105568339810180604052602081101561003057600080fd5b8101908080519060200190929190505050806000806101000a81548167ffffffffffffffff021916908360c01c02179055506100806000809054906101000a900460c01b306100ab60201b60201c565b600060086101000a8154816bffffffffffffffffffffffff021916908360a01c021790555050610149565b60008282604051602001808377ffffffffffffffffffffffffffffffffffffffffffffffff191677ffffffffffffffffffffffffffffffffffffffffffffffff191681526008018273ffffffffffffffffffffffffffffffffffffffff1673ffffffffffffffffffffffffffffffffffffffff1660601b81526014019250505060405160208183030381529060405280519060200120905092915050565b6103fe806101586000396000f3fe608060405234801561001057600080fd5b50600436106100935760003560e01c80636b889952116100665780636b8899521461016e5780636df8f6e61461019057806370eb1ef0146101b2578063d55c3ca3146101f6578063e76e03361461024257610093565b806308e44f88146100985780632fc52377146100ec57806337f10dfb1461010e5780634676f8171461013e575b600080fd5b6100a0610272565b604051808277ffffffffffffffffffffffffffffffffffffffffffffffff191677ffffffffffffffffffffffffffffffffffffffffffffffff1916815260200191505060405180910390f35b6100f4610284565b604051808215151515815260200191505060405180910390f35b61013c6004803603602081101561012457600080fd5b81019080803515159060200190929190505050610297565b005b61016c6004803603602081101561015457600080fd5b810190808035151590602001909291905050506102b4565b005b6101766102d1565b604051808215151515815260200191505060405180910390f35b6101986102e4565b604051808215151515815260200191505060405180910390f35b6101f4600480360360208110156101c857600080fd5b81019080803573ffffffffffffffffffffffffffffffffffffffff1690602001909291905050506102f7565b005b6101fe6103a2565b604051808273ffffffffffffffffffffffffffffffffffffffff191673ffffffffffffffffffffffffffffffffffffffff1916815260200191505060405180910390f35b6102706004803603602081101561025857600080fd5b810190808035151590602001909291905050506103b5565b005b6000809054906101000a900460c01b81565b600060159054906101000a900460ff1681565b80600060166101000a81548160ff02191690831515021790555050565b80600060156101000a81548160ff02191690831515021790555050565b600060149054906101000a900460ff1681565b600060169054906101000a900460ff1681565b8073ffffffffffffffffffffffffffffffffffffffff1663c5f310c0600060089054906101000a900460a01b6040518263ffffffff1660e01b8152600401808273ffffffffffffffffffffffffffffffffffffffff191673ffffffffffffffffffffffffffffffffffffffff19168152602001915050600060405180830381600087803b15801561038757600080fd5b505af115801561039b573d6000803e3d6000fd5b5050505050565b600060089054906101000a900460a01b81565b80600060146101000a81548160ff0219169083151502179055505056fea165627a7a723058201abe505d7cdd6310d31262b57f4085315ebe62c4c3ea0e292950fa8169838c630029a165627a7a723058202c2693fd275396a18e20c85460071189e3ee02f7902a63fc48b8d08a499f989f0029",
  "source": "pragma solidity ^0.5.0;\nimport \"./CSC.sol\";\nimport \"./CSCRegistry.sol\";\n\ncontract CSCFactory {\n  CSCRegistry public cscRegistory;\n  event DeployedCSC(address _address, address _factoryAddress, bytes8 _geohash, bytes12 _csc);\n\n  constructor(address registry) public {\n      cscRegistory = CSCRegistry(registry);\n  }\n\n  function deploy(bytes8 _geohash) public returns (address) {\n      CSC newCsc = new CSC(_geohash);\n      newCsc.registerWith(address(cscRegistory));\n      emit DeployedCSC(address(newCsc), address(this), _geohash, newCsc.csc());\n      return address(newCsc);\n  }\n}\n",
  "sourcePath": "/home/jasoons/Documents/clean-code/Team-9/contracts/CSCFactory.sol",
  "compiler": {
    "name": "solc",
    "version": "0.5.8+commit.23d335f2.Emscripten.clang"
  },
  "schemaVersion": "3.0.16",
  "updatedAt": "2019-10-20T10:44:03.293Z",
  "devdoc": {
    "methods": {}
  },
  "userdoc": {
    "methods": {}
  }
}