{
  "contractName": "CSCRegistry",
  "abi": [
    {
      "constant": true,
      "inputs": [
        {
          "name": "",
          "type": "bytes12"
        }
      ],
      "name": "registry",
      "outputs": [
        {
          "name": "",
          "type": "address"
        }
      ],
      "payable": false,
      "stateMutability": "view",
      "type": "function"
    },
    {
      "anonymous": false,
      "inputs": [
        {
          "indexed": false,
          "name": "csc",
          "type": "bytes12"
        },
        {
          "indexed": false,
          "name": "addr",
          "type": "address"
        },
        {
          "indexed": false,
          "name": "geohash",
          "type": "bytes8"
        }
      ],
      "name": "RegisterCSC",
      "type": "event"
    },
    {
      "constant": false,
      "inputs": [
        {
          "name": "csc",
          "type": "bytes12"
        }
      ],
      "name": "register",
      "outputs": [],
      "payable": false,
      "stateMutability": "nonpayable",
      "type": "function"
    }
  ],
  "bytecode": "0x608060405234801561001057600080fd5b5061053a806100206000396000f3fe608060405234801561001057600080fd5b50600436106100365760003560e01c8063b5b134a01461003b578063c5f310c0146100c0575b600080fd5b61007e6004803603602081101561005157600080fd5b81019080803573ffffffffffffffffffffffffffffffffffffffff19169060200190929190505050610105565b604051808273ffffffffffffffffffffffffffffffffffffffff1673ffffffffffffffffffffffffffffffffffffffff16815260200191505060405180910390f35b610103600480360360208110156100d657600080fd5b81019080803573ffffffffffffffffffffffffffffffffffffffff19169060200190929190505050610138565b005b60006020528060005260406000206000915054906101000a900473ffffffffffffffffffffffffffffffffffffffff1681565b6000339050600073ffffffffffffffffffffffffffffffffffffffff166000808473ffffffffffffffffffffffffffffffffffffffff191673ffffffffffffffffffffffffffffffffffffffff1916815260200190815260200160002060009054906101000a900473ffffffffffffffffffffffffffffffffffffffff1673ffffffffffffffffffffffffffffffffffffffff16141561046c578173ffffffffffffffffffffffffffffffffffffffff19166102748273ffffffffffffffffffffffffffffffffffffffff166308e44f886040518163ffffffff1660e01b815260040160206040518083038186803b15801561023357600080fd5b505afa158015610247573d6000803e3d6000fd5b505050506040513d602081101561025d57600080fd5b810190808051906020019092919050505033610470565b73ffffffffffffffffffffffffffffffffffffffff19161461029557600080fd5b336000808473ffffffffffffffffffffffffffffffffffffffff191673ffffffffffffffffffffffffffffffffffffffff1916815260200190815260200160002060006101000a81548173ffffffffffffffffffffffffffffffffffffffff021916908373ffffffffffffffffffffffffffffffffffffffff1602179055507fb3ffe8830db156e38c9032a484e2a9824af8c3a24dfd40373831397d9c889d3382338373ffffffffffffffffffffffffffffffffffffffff166308e44f886040518163ffffffff1660e01b815260040160206040518083038186803b15801561037d57600080fd5b505afa158015610391573d6000803e3d6000fd5b505050506040513d60208110156103a757600080fd5b8101908080519060200190929190505050604051808473ffffffffffffffffffffffffffffffffffffffff191673ffffffffffffffffffffffffffffffffffffffff191681526020018373ffffffffffffffffffffffffffffffffffffffff1673ffffffffffffffffffffffffffffffffffffffff1681526020018277ffffffffffffffffffffffffffffffffffffffffffffffff191677ffffffffffffffffffffffffffffffffffffffffffffffff19168152602001935050505060405180910390a15b5050565b60008282604051602001808377ffffffffffffffffffffffffffffffffffffffffffffffff191677ffffffffffffffffffffffffffffffffffffffffffffffff191681526008018273ffffffffffffffffffffffffffffffffffffffff1673ffffffffffffffffffffffffffffffffffffffff1660601b8152601401925050506040516020818303038152906040528051906020012090509291505056fea165627a7a723058208072425bccbfe471f505e39dedaba3914452ce2839f0dd896c3fc9609c9f2f500029",
  "source": "pragma solidity ^0.5.0;\n\nimport \"./CSC.sol\";\n\ncontract CSCRegistry {\n  event RegisterCSC(bytes12 csc, address addr, bytes8 geohash);\n  mapping(bytes12 => address) public registry;\n\n  function register(bytes12 csc) public {\n    CSC caller = CSC(msg.sender);\n    if (registry[csc] == address(0)) {\n      require(computeCSC(caller.geohash(), msg.sender) == csc);\n      registry[csc] = msg.sender;\n      emit RegisterCSC(csc, msg.sender, caller.geohash());\n    }\n  }\n\n  function computeCSC(bytes8 geohash, address addr) internal returns(bytes12) {\n    return bytes12(keccak256(abi.encodePacked(geohash, addr)));\n  }\n}\n",
  "sourcePath": "/home/jasoons/Documents/clean-code/Team-9/contracts/CSCRegistry.sol",
  "compiler": {
    "name": "solc",
    "version": "0.5.8+commit.23d335f2.Emscripten.clang"
  },
  "schemaVersion": "3.0.16",
  "updatedAt": "2019-10-20T10:44:03.296Z",
  "devdoc": {
    "methods": {}
  },
  "userdoc": {
    "methods": {}
  }
}